:100000000C943A000C9414030C9414030C941403F1
:100010000C9414030C9414030C9414030C94140304
:100020000C9414030C9414030C9414030C941403F4
:100030000C9414030C9414030C9414030C941403E4
:100040000C9414030C9414030C9414030C941403D4
:100050000C9414030C9414030C9414030C941403C4
:100060000C9414030C9414030100027F0006360262
:100070007F028C8011241FBECFEFD8E0DEBFCDBF42
:10008000E8E6F0E040E017C0B591A59135912591E3
:10009000059107FD0CC095918591EF01F92FE82F8F
:1000A00005900D92A217B307D9F7FE0104C01D9267
:1000B000A217B307E1F7E437F40731F70E9408030A
:0800C0000C94FD02F894FFCF3F
:1000C80007E004B900E005B901B910E007E61093AC
:1000D800C5000093C40008E10093C10006E0009346
:1000E800C20007E800937A0000E400937C0000E077
:1000F80000937B000EEF00937E000FEF00937F00CC
:10010800089510E003E31093C5000093C40006E2CD
:100118000093C200089510E007E61093C50000930D
:10012800C40006E00093C20008950E94D6000FEFB5
:100138000AB900918A020BB904E005B90E94AB0024
:1001480000E005B90E94AB000E94D00008950AEFB4
:100158001FEF1A95F1F70A95D9F708950E94D6006E
:100168000FEF0AB900918A020BB906E005B90E949F
:10017800AB0000E005B90E94AB000E94D0000895D2
:100188000E94D60000E00AB945B80BB100938A0274
:1001980005B80E94D000089502E00AB908E100936A
:1001A800C100089500E00093C10008950091C000C7
:1001B80007FF08950091C600F9CF0091C00007FF1E
:1001C800FCCF0091C60000938B0208951091C000E7
:1001D80015FFFCCF00918B020093C600089510E034
:1001E80007E61093C5000093C400089510E003E3E8
:1001F8001093C5000093C40008950FEC1091C2003D
:1002080010231093C200089500E21091C200102B31
:100218000FEE10231093C200089500E31091C2005E
:10022800102B1093C200089507EF1091C2001023FD
:100238001093C200089508E01091C200102B10938B
:10024800C200089507EC00937A0000917A0006FD39
:10025800FCCF009178000093880200917900009308
:1002680089020895F999FECF20E015E006E422BD41
:1002780011BD00BDFA9AF99A0895F999FECF20E0C8
:1002880015E000E022BD11BDF89A00B500938B027D
:020298000895C7
:10029A00CF93DF93CFE7D2E08EE2898380E28B832C
:1002AA001C820E9426018091890290E0982F88275B
:1002BA0020918802820F911D880F991F9C01220F9D
:1002CA00331F220F331F820F931FEEEFF7E0BF0198
:1002DA000E94A602462F20E3260F2883880F991F23
:1002EA009C01220F331F220F331F820F931FBF015E
:1002FA000E94A60220E3260F2A8390938702809306
:10030A0086028F3F93401CF06F5C6093810280915C
:10031A0081028A3331F4EFE7F2E080E382834F5CB3
:10032A0040838FE792E00E94CE0288E792E00E9423
:08033A00CE02DF91CF9108957E
:1003420080E091E00E94CE0210928B020E94E100B6
:1003520080918B028823D1F38C3659F028F48136B0
:1003620059F0853661F014C0833761F0853769F042
:100372000FC00E94590208950E944D0108950E94E3
:100382008F0208950E94770208950E94F501089550
:0E03920081E392E00E94CE020E940F030895C4
:1003A0008FEE91E00E94CE0210928B020E94E1003B
:1003B00080918B028823D1F38E3629F08F3649F055
:1003C000853651F403C00E94010108950E9408017E
:1003D00008950E941101089581E392E00E94CE02E7
:0A03E0008FEE91E00E94CE02089516
:1003EA0084E791E00E94CE0210928B020E94E10003
:1003FA0080918B028823D1F3803739F0833741F01B
:10040A00823649F40E94190208950E94D001089583
:10041A000E943902089581E392E00E94CE0284E7A5
:08042A0091E00E94CE0208954A
:100432008CEC91E00E94CE0210928B020E94E100AD
:1004420080918B028823D1F3813319F0823321F01A
:1004520006C00E94F30008950E94FA00089581E305
:1004620092E00E94CE028CEC91E00E94CE020895AE
:1004720081E192E00E94CE0210928B020E94E10082
:1004820080918B028823D1F3813319F0823321F0DA
:1004920006C00E94180108950E941F01089581E379
:1004A20092E00E94CE0281E192E00E94CE02089583
:1004B20084E380938A020E94990088E080938A02F2
:1004C2000E94990082E080938A020E94990086E04D
:1004D20080938A020E9499008FE080938A020E9490
:0C04E200990082EA91E00E94DF02089578
:1004EE008091840290918502009749F481E090E01A
:1004FE0090938502809384020E948500089501974F
:10050E0031F410928502109284020E948F00089599
:10051E0080EB91E00E94CE0289EC91E00E94CE0227
:10052E000E94360189EC91E00E94CE020E944101A8
:0E053E000E94EA0089EC91E00E94CE0208952E
:10054C0097FB072E16F4009407D077FD09D00E9474
:10055C00BA0207FC05D03EF4909581959F4F089503
:08056C00709561957F4F089521
:10057400AA1BBB1B51E107C0AA1FBB1FA617B707C5
:1005840010F0A61BB70B881F991F5A95A9F78095E1
:080594009095BC01CD01089512
:10059C00CF93DF93EC019881992341F021969093AE
:1005AC008B020E94EA0099919111F9CFDF91CF91C2
:0205BC000895A0
:1005BE00CF93DF93EC019881992341F0219690938C
:1005CE008A020E94B20099919111F9CFDF91CF91D9
:0205DE0008957E
:1005E00080E592E00E94CE028DE391E00E94CE026F
:0A05F0008EE692E00E94CE0208950C
:1005FA00EC010E9419030E941803CE010E941A03FB
:06060A00CE010E94160360
:0E0610000E9464000E94F0020E94A101FDCF32
:0A061E0080E091E00E94CE020895F2
:040628000C9400002E
:04062C000E946200C6
:0206300008952B
:02063200089529
:02063400089527
:100636000D0A4D656E753A20284C2943442C202816
:10064600412944432C202845294550524F4D2C2002
:10065600285329574954434820424155445241544E
:0D066600452C20285529534152540D0A00FF
:100673000D0A627920457567656E6520526F636B5D
:10068300657920436F7079726967687420323032FC
:10069300322C20416C6C2052696768747320526558
:0706A30073657276656400C7
:1006AA000D0A55534152543A2028422941554420B3
:1006BA00524154452C2028502941524954592C2042
:0E06CA00285329544F5020424954530D0A0022
:1006D80048656C6C6F2045434534313221000D0A62
:1006E800454550524F4D20577269746520616E64BC
:0A06F80020526561642E000D0A0017
:100702000D0A4241554420524154453A202831298C
:1007120020393630302C20283229203139323030FD
:030722000D0A00BD
:100725000D0A5041524954593A20284E294F4E45F9
:100735002C2028452956454E2C20284F2944440D68
:020745000A00A8
:100747000D0A53544F5020424954533A2028312917
:10075700204F4E452C202832292054574F0D0A0090
:100767000D0A496E76616C696420436F6D6D616E29
:0F077700642054727920416761696E2E2E2E0026
:100786000D0A4543452D3431322041544D6567618C
:0E07960033323850422054696E79204F5300A0
:0A07A4000D0A52656164793A2000E5
:0707AE00566F6C74730D001F
:00000001FF
