:100000000C943A000C9420020C9420020C942002D0
:100010000C9420020C9420020C9420020C942002D8
:100020000C9420020C9420020C9420020C942002C8
:100030000C9420020C9420020C9420020C942002B8
:100040000C9420020C9420020C9420020C942002A8
:100050000C9420020C9420020C9420020C94200298
:100060000C9420020C942002010001D000044E01E7
:10007000D001DB8011241FBECFEFD8E0DEBFCDBFA3
:10008000E8E6F0E040E017C0B591A59135912591E3
:10009000059107FD0CC095918591EF01F92FE82F8F
:1000A00005900D92A217B307D9F7FE0104C01D9267
:1000B000A217B307E1F7E437F40731F70E941402FF
:0800C0000C940902F894FFCF33
:1000C80007E004B900E005B901B910E007E61093AC
:1000D800C5000093C40008E10093C10006E0009346
:1000E800C20007E800937A0000E400937C0000E077
:1000F80000937B000EEF00937E000FEF00937F00CC
:1001080008950E94C2000FEF0AB90091D9010BB9F6
:1001180004E005B90E94970000E005B90E94970025
:100128000E94BC0008950AEF1FEF1A95F1F70A958F
:10013800D9F708950E94C2000FEF0AB90091D901BA
:100148000BB906E005B90E94970000E005B90E94C6
:1001580097000E94BC0008950E94C20000E00AB9FE
:1001680045B80BB10093D90105B80E94BC000895A9
:1001780002E00AB908E10093C100089500E0009385
:10018800C10008950091C00007FF08950091C600BE
:10019800F9CF0091C00007FFFCCF0091C600009383
:1001A800DA0108951091C00015FFFCCF0091DA0123
:1001B8000093C600089507EC00937A0000917A0036
:1001C80006FDFCCF009178000093D70100917900DB
:1001D8000093D8010895F999FECF20E015E006E4D0
:1001E80022BD11BD00BDFA9AF99A0895F999FECF7A
:1001F80020E015E000E022BD11BDF89A00B500939B
:04020800DA0108957A
:10020C00CF93DF93C0EDD1E08EE2898380E28B83C4
:10021C001C820E94DF008091D80190E0982F8827E3
:10022C002091D701820F911D880F991F9C01220FDD
:10023C00331F220F331F820F931FEEEFF7E0BF0126
:10024C000E94B201462F20E3260F2883880F991FA6
:10025C009C01220F331F220F331F820F931FBF01EC
:10026C000E94B20120E3260F2A839093D60180933B
:10027C00D5018F3F93401CF06F5C6093D20180914D
:10028C00D2018A3331F4E0EDF1E080E382834F5CFC
:10029C00408380ED91E00E94DA0189EC91E00E94AC
:0802AC00DA01DF91CF91089502
:1002B40081E691E00E94DA011092DA010E94CD00F9
:1002C4008091DA018823D1F3853659F08C3619F000
:1002D400813651F403C00E947D0108950E940601F5
:1002E40008950E949B01089582E891E00E94DA013A
:0602F4000E941B020895A8
:1002FA0084E38093D9010E94850088E08093D90124
:10030A000E94850082E08093D9010E94850086E0E0
:10031A008093D9010E9485008FE08093D9010E94C1
:0C032A00850087E391E00E94EB0108953C
:1003360085E491E00E94DA018EE591E00E94DA01FF
:100346000E94EF008EE591E00E94DA010E94FA0019
:0E0356000E94D6008EE591E00E94DA01089523
:1003640097FB072E16F4009407D077FD09D00E945E
:10037400C60107FC05D03EF4909581959F4F0895E2
:08038400709561957F4F08950B
:10038C00AA1BBB1B51E107C0AA1FBB1FA617B707AF
:10039C0010F0A61BB70B881F991F5A95A9F78095CB
:0803AC009095BC01CD010895FC
:1003B400CF93DF93EC019881992341F02196909398
:1003C400DA010E94D60099919111F9CFDF91CF9172
:0203D40008958A
:1003D600CF93DF93EC019881992341F02196909376
:1003E600D9010E949E0099919111F9CFDF91CF9189
:0203F600089568
:1003F80081EA91E00E94DA0180E091E00E94DA014E
:0A0408008FEB91E00E94DA010895E5
:10041200EC010E9425020E942402CE010E942602C3
:06042200CE010E9422023F
:0E0428000E9464000E94FC010E945A01FDCF58
:0A04360081E691E00E94DA010895CA
:040440000C94000018
:040444000E946200B0
:02044800089515
:02044A00089513
:02044C00089511
:10044E000D0A627920457567656E6520526F636B84
:10045E00657920436F707972696768742032303223
:10046E00322C20416C6C205269676874732052657F
:07047E0073657276656400EE
:1004850048656C6C6F2045434534313221000D0AB7
:10049500454550524F4D20577269746520616E6411
:0A04A50020526561642E000D0A006C
:1004AF000D0A4D656E753A20284C2943442C20289F
:1004BF00412944432C202845294550524F4D0D0AC0
:0104CF00002C
:1004D0000D0A496E76616C696420436F6D6D616EC3
:0F04E000642054727920416761696E2E2E2E00C0
:1004EF000D0A4543452D3431322041544D65676126
:0E04FF0033323850422054696E79204F53003A
:0A050D000D0A52656164793A20007E
:07051700566F6C74730D00B8
:00000001FF
